{
  "address": "0x2117e32b2984b7863f92dfd9a81365d4727695ac",
  "abi": [
    {
      "stateMutability": "payable",
      "type": "fallback"
    },
    {
      "inputs": [
        {
          "internalType": "address",
          "name": "owner",
          "type": "address"
        },
        {
          "internalType": "address",
          "name": "contractAddress",
          "type": "address"
        }
      ],
      "name": "balanceOf",
      "outputs": [
        {
          "internalType": "uint256",
          "name": "",
          "type": "uint256"
        }
      ],
      "stateMutability": "view",
      "type": "function"
    },
    {
      "inputs": [
        {
          "internalType": "address",
          "name": "contractAddress",
          "type": "address"
        },
        {
          "internalType": "uint256",
          "name": "nftId",
          "type": "uint256"
        },
        {
          "internalType": "uint256",
          "name": "duration",
          "type": "uint256"
        },
        {
          "internalType": "uint256",
          "name": "APR",
          "type": "uint256"
        },
        {
          "internalType": "uint256",
          "name": "amount",
          "type": "uint256"
        }
      ],
      "name": "borrow",
      "outputs": [],
      "stateMutability": "nonpayable",
      "type": "function"
    },
    {
      "inputs": [
        {
          "internalType": "address",
          "name": "contractAddress",
          "type": "address"
        },
        {
          "internalType": "uint256",
          "name": "nftId",
          "type": "uint256"
        }
      ],
      "name": "getBackNft",
      "outputs": [],
      "stateMutability": "nonpayable",
      "type": "function"
    },
    {
      "inputs": [
        {
          "internalType": "address",
          "name": "owner",
          "type": "address"
        },
        {
          "internalType": "address",
          "name": "contractAddress",
          "type": "address"
        },
        {
          "internalType": "uint256",
          "name": "nftId",
          "type": "uint256"
        }
      ],
      "name": "getLend",
      "outputs": [
        {
          "components": [
            {
              "internalType": "uint256",
              "name": "duration",
              "type": "uint256"
            },
            {
              "internalType": "uint256",
              "name": "APR",
              "type": "uint256"
            },
            {
              "internalType": "uint256",
              "name": "amount",
              "type": "uint256"
            },
            {
              "internalType": "uint256",
              "name": "yesVote",
              "type": "uint256"
            },
            {
              "internalType": "uint256",
              "name": "noVote",
              "type": "uint256"
            }
          ],
          "internalType": "struct Lending.Lend",
          "name": "lend",
          "type": "tuple"
        }
      ],
      "stateMutability": "view",
      "type": "function"
    },
    {
      "inputs": [
        {
          "internalType": "uint256",
          "name": "duration",
          "type": "uint256"
        }
      ],
      "name": "lock",
      "outputs": [],
      "stateMutability": "payable",
      "type": "function"
    },
    {
      "inputs": [
        {
          "internalType": "address",
          "name": "contractAddress",
          "type": "address"
        },
        {
          "internalType": "uint256",
          "name": "nftId",
          "type": "uint256"
        }
      ],
      "name": "ownerOf",
      "outputs": [
        {
          "internalType": "address",
          "name": "",
          "type": "address"
        }
      ],
      "stateMutability": "view",
      "type": "function"
    },
    {
      "inputs": [
        {
          "internalType": "uint256",
          "name": "lockId",
          "type": "uint256"
        }
      ],
      "name": "withdraw",
      "outputs": [],
      "stateMutability": "nonpayable",
      "type": "function"
    },
    {
      "stateMutability": "payable",
      "type": "receive"
    }
  ],
  "transactionHash": "0xc01f210c78627b52b9f7004e6ba6a60b5addc5b72c76b08369332ea3f9e567f1",
  "args": [],
  "numDeployments": 1,
  "solcInputHash": "30e3a455b1268c5ce197f23417039322",
  "bytecode": "0x608060405234801561001057600080fd5b50611151806100206000396000f3fe6080604052600436106100745760003560e01c80632e1a7d4d1161004e5780632e1a7d4d146101205780636abcd3de14610149578063dd46706414610172578063f7888aec1461018e5761007b565b8063054fcf141461007d57806305e77826146100ba5780631f29d2dc146100e35761007b565b3661007b57005b005b34801561008957600080fd5b506100a4600480360381019061009f9190610c68565b6101cb565b6040516100b19190610f3d565b60405180910390f35b3480156100c657600080fd5b506100e160048036038101906100dc9190610cbb565b6102a5565b005b3480156100ef57600080fd5b5061010a60048036038101906101059190610cbb565b61057d565b6040516101179190610eab565b60405180910390f35b34801561012c57600080fd5b5061014760048036038101906101429190610d76565b610615565b005b34801561015557600080fd5b50610170600480360381019061016b9190610cfb565b610835565b005b61018c60048036038101906101879190610d76565b610994565b005b34801561019a57600080fd5b506101b560048036038101906101b09190610c28565b610ac4565b6040516101c29190610f58565b60405180910390f35b6101d3610b57565b6000808573ffffffffffffffffffffffffffffffffffffffff1673ffffffffffffffffffffffffffffffffffffffff16815260200190815260200160002060008473ffffffffffffffffffffffffffffffffffffffff1673ffffffffffffffffffffffffffffffffffffffff16815260200190815260200160002060008381526020019081526020016000206040518060a00160405290816000820154815260200160018201548152602001600282015481526020016003820154815260200160048201548152505090509392505050565b60008060003373ffffffffffffffffffffffffffffffffffffffff1673ffffffffffffffffffffffffffffffffffffffff16815260200190815260200160002060008473ffffffffffffffffffffffffffffffffffffffff1673ffffffffffffffffffffffffffffffffffffffff16815260200190815260200160002060008381526020019081526020016000206040518060a001604052908160008201548152602001600182015481526020016002820154815260200160038201548152602001600482015481525050905080600001516000803373ffffffffffffffffffffffffffffffffffffffff1673ffffffffffffffffffffffffffffffffffffffff16815260200190815260200160002060008573ffffffffffffffffffffffffffffffffffffffff1673ffffffffffffffffffffffffffffffffffffffff168152602001908152602001600020600084815260200190815260200160002060000154426104129190610f84565b11610452576040517f08c379a000000000000000000000000000000000000000000000000000000000815260040161044990610f1d565b60405180910390fd5b8273ffffffffffffffffffffffffffffffffffffffff166342842e0e3033856040518463ffffffff1660e01b815260040161048f93929190610ec6565b600060405180830381600087803b1580156104a957600080fd5b505af11580156104bd573d6000803e3d6000fd5b505050506000803373ffffffffffffffffffffffffffffffffffffffff1673ffffffffffffffffffffffffffffffffffffffff16815260200190815260200160002060008473ffffffffffffffffffffffffffffffffffffffff1673ffffffffffffffffffffffffffffffffffffffff168152602001908152602001600020600083815260200190815260200160002060008082016000905560018201600090556002820160009055600382016000905560048201600090555050505050565b6000808373ffffffffffffffffffffffffffffffffffffffff16636352211e846040518263ffffffff1660e01b81526004016105b99190610f58565b60206040518083038186803b1580156105d157600080fd5b505afa1580156105e5573d6000803e3d6000fd5b505050506040513d601f19601f820116820180604052508101906106099190610bfb565b90508091505092915050565b6000600160003373ffffffffffffffffffffffffffffffffffffffff1673ffffffffffffffffffffffffffffffffffffffff16815260200190815260200160002060008381526020019081526020016000206040518060600160405290816000820154815260200160018201548152602001600282015481525050905080602001518160000151426106a79190610f84565b116106e7576040517f08c379a00000000000000000000000000000000000000000000000000000000081526004016106de90610efd565b60405180910390fd5b3373ffffffffffffffffffffffffffffffffffffffff166108fc82604001519081150290604051600060405180830381858888f19350505050158015610731573d6000803e3d6000fd5b50600160003373ffffffffffffffffffffffffffffffffffffffff1673ffffffffffffffffffffffffffffffffffffffff1681526020019081526020016000206000600260003373ffffffffffffffffffffffffffffffffffffffff1673ffffffffffffffffffffffffffffffffffffffff168152602001908152602001600020548152602001908152602001600020600080820160009055600182016000905560028201600090555050600260003373ffffffffffffffffffffffffffffffffffffffff1673ffffffffffffffffffffffffffffffffffffffff168152602001908152602001600020600081548092919061082c90610ff4565b91905055505050565b61083d610b57565b838160000181815250508281602001818152505081816040018181525050806000803373ffffffffffffffffffffffffffffffffffffffff1673ffffffffffffffffffffffffffffffffffffffff16815260200190815260200160002060008873ffffffffffffffffffffffffffffffffffffffff1673ffffffffffffffffffffffffffffffffffffffff168152602001908152602001600020600087815260200190815260200160002060008201518160000155602082015181600101556040820151816002015560608201518160030155608082015181600401559050508573ffffffffffffffffffffffffffffffffffffffff166342842e0e3330886040518463ffffffff1660e01b815260040161095a93929190610ec6565b600060405180830381600087803b15801561097457600080fd5b505af1158015610988573d6000803e3d6000fd5b50505050505050505050565b61099c610b86565b81816020018181525050348160400181815250504281600001818152505080600160003373ffffffffffffffffffffffffffffffffffffffff1673ffffffffffffffffffffffffffffffffffffffff1681526020019081526020016000206000600260003373ffffffffffffffffffffffffffffffffffffffff1673ffffffffffffffffffffffffffffffffffffffff168152602001908152602001600020548152602001908152602001600020600082015181600001556020820151816001015560408201518160020155905050600260003373ffffffffffffffffffffffffffffffffffffffff1673ffffffffffffffffffffffffffffffffffffffff1681526020019081526020016000206000815480929190610abb9061101e565b91905055505050565b60008173ffffffffffffffffffffffffffffffffffffffff166370a08231846040518263ffffffff1660e01b8152600401610aff9190610eab565b60206040518083038186803b158015610b1757600080fd5b505afa158015610b2b573d6000803e3d6000fd5b505050506040513d601f19601f82011682018060405250810190610b4f9190610da3565b905092915050565b6040518060a0016040528060008152602001600081526020016000815260200160008152602001600081525090565b60405180606001604052806000815260200160008152602001600081525090565b600081359050610bb6816110ed565b92915050565b600081519050610bcb816110ed565b92915050565b600081359050610be081611104565b92915050565b600081519050610bf581611104565b92915050565b600060208284031215610c1157610c10611096565b5b6000610c1f84828501610bbc565b91505092915050565b60008060408385031215610c3f57610c3e611096565b5b6000610c4d85828601610ba7565b9250506020610c5e85828601610ba7565b9150509250929050565b600080600060608486031215610c8157610c80611096565b5b6000610c8f86828701610ba7565b9350506020610ca086828701610ba7565b9250506040610cb186828701610bd1565b9150509250925092565b60008060408385031215610cd257610cd1611096565b5b6000610ce085828601610ba7565b9250506020610cf185828601610bd1565b9150509250929050565b600080600080600060a08688031215610d1757610d16611096565b5b6000610d2588828901610ba7565b9550506020610d3688828901610bd1565b9450506040610d4788828901610bd1565b9350506060610d5888828901610bd1565b9250506080610d6988828901610bd1565b9150509295509295909350565b600060208284031215610d8c57610d8b611096565b5b6000610d9a84828501610bd1565b91505092915050565b600060208284031215610db957610db8611096565b5b6000610dc784828501610be6565b91505092915050565b610dd981610fb8565b82525050565b6000610dec601383610f73565b9150610df78261109b565b602082019050919050565b6000610e0f601383610f73565b9150610e1a826110c4565b602082019050919050565b60a082016000820151610e3b6000850182610e8d565b506020820151610e4e6020850182610e8d565b506040820151610e616040850182610e8d565b506060820151610e746060850182610e8d565b506080820151610e876080850182610e8d565b50505050565b610e9681610fea565b82525050565b610ea581610fea565b82525050565b6000602082019050610ec06000830184610dd0565b92915050565b6000606082019050610edb6000830186610dd0565b610ee86020830185610dd0565b610ef56040830184610e9c565b949350505050565b60006020820190508181036000830152610f1681610ddf565b9050919050565b60006020820190508181036000830152610f3681610e02565b9050919050565b600060a082019050610f526000830184610e25565b92915050565b6000602082019050610f6d6000830184610e9c565b92915050565b600082825260208201905092915050565b6000610f8f82610fea565b9150610f9a83610fea565b925082821015610fad57610fac611067565b5b828203905092915050565b6000610fc382610fca565b9050919050565b600073ffffffffffffffffffffffffffffffffffffffff82169050919050565b6000819050919050565b6000610fff82610fea565b9150600082141561101357611012611067565b5b600182039050919050565b600061102982610fea565b91507fffffffffffffffffffffffffffffffffffffffffffffffffffffffffffffffff82141561105c5761105b611067565b5b600182019050919050565b7f4e487b7100000000000000000000000000000000000000000000000000000000600052601160045260246000fd5b600080fd5b7f4c6f636b206973206e6f74206578706972656400000000000000000000000000600082015250565b7f4c656e64206973206e6f74206578706972656400000000000000000000000000600082015250565b6110f681610fb8565b811461110157600080fd5b50565b61110d81610fea565b811461111857600080fd5b5056fea26469706673582212203da4a039cc7f6ea01fc009e8d593878d8cf33ae899b3afdcf3e00e37fbb808a864736f6c63430008070033",
  "devdoc": {
    "kind": "dev",
    "methods": {},
    "version": 1
  },
  "userdoc": {
    "kind": "user",
    "methods": {},
    "version": 1
  },
  "storageLayout": {
    "storage": [
      {
        "astId": 2563,
        "contract": "contracts/Lending.sol:Lending",
        "label": "lendings",
        "offset": 0,
        "slot": "0",
        "type": "t_mapping(t_address,t_mapping(t_address,t_mapping(t_uint256,t_struct(Lend)2547_storage)))"
      },
      {
        "astId": 2570,
        "contract": "contracts/Lending.sol:Lending",
        "label": "locks",
        "offset": 0,
        "slot": "1",
        "type": "t_mapping(t_address,t_mapping(t_uint256,t_struct(Lock)2554_storage))"
      },
      {
        "astId": 2574,
        "contract": "contracts/Lending.sol:Lending",
        "label": "lockCount",
        "offset": 0,
        "slot": "2",
        "type": "t_mapping(t_address,t_uint256)"
      }
    ],
    "types": {
      "t_address": {
        "encoding": "inplace",
        "label": "address",
        "numberOfBytes": "20"
      },
      "t_mapping(t_address,t_mapping(t_address,t_mapping(t_uint256,t_struct(Lend)2547_storage)))": {
        "encoding": "mapping",
        "key": "t_address",
        "label": "mapping(address => mapping(address => mapping(uint256 => struct Lending.Lend)))",
        "numberOfBytes": "32",
        "value": "t_mapping(t_address,t_mapping(t_uint256,t_struct(Lend)2547_storage))"
      },
      "t_mapping(t_address,t_mapping(t_uint256,t_struct(Lend)2547_storage))": {
        "encoding": "mapping",
        "key": "t_address",
        "label": "mapping(address => mapping(uint256 => struct Lending.Lend))",
        "numberOfBytes": "32",
        "value": "t_mapping(t_uint256,t_struct(Lend)2547_storage)"
      },
      "t_mapping(t_address,t_mapping(t_uint256,t_struct(Lock)2554_storage))": {
        "encoding": "mapping",
        "key": "t_address",
        "label": "mapping(address => mapping(uint256 => struct Lending.Lock))",
        "numberOfBytes": "32",
        "value": "t_mapping(t_uint256,t_struct(Lock)2554_storage)"
      },
      "t_mapping(t_address,t_uint256)": {
        "encoding": "mapping",
        "key": "t_address",
        "label": "mapping(address => uint256)",
        "numberOfBytes": "32",
        "value": "t_uint256"
      },
      "t_mapping(t_uint256,t_struct(Lend)2547_storage)": {
        "encoding": "mapping",
        "key": "t_uint256",
        "label": "mapping(uint256 => struct Lending.Lend)",
        "numberOfBytes": "32",
        "value": "t_struct(Lend)2547_storage"
      },
      "t_mapping(t_uint256,t_struct(Lock)2554_storage)": {
        "encoding": "mapping",
        "key": "t_uint256",
        "label": "mapping(uint256 => struct Lending.Lock)",
        "numberOfBytes": "32",
        "value": "t_struct(Lock)2554_storage"
      },
      "t_struct(Lend)2547_storage": {
        "encoding": "inplace",
        "label": "struct Lending.Lend",
        "members": [
          {
            "astId": 2538,
            "contract": "contracts/Lending.sol:Lending",
            "label": "duration",
            "offset": 0,
            "slot": "0",
            "type": "t_uint256"
          },
          {
            "astId": 2540,
            "contract": "contracts/Lending.sol:Lending",
            "label": "APR",
            "offset": 0,
            "slot": "1",
            "type": "t_uint256"
          },
          {
            "astId": 2542,
            "contract": "contracts/Lending.sol:Lending",
            "label": "amount",
            "offset": 0,
            "slot": "2",
            "type": "t_uint256"
          },
          {
            "astId": 2544,
            "contract": "contracts/Lending.sol:Lending",
            "label": "yesVote",
            "offset": 0,
            "slot": "3",
            "type": "t_uint256"
          },
          {
            "astId": 2546,
            "contract": "contracts/Lending.sol:Lending",
            "label": "noVote",
            "offset": 0,
            "slot": "4",
            "type": "t_uint256"
          }
        ],
        "numberOfBytes": "160"
      },
      "t_struct(Lock)2554_storage": {
        "encoding": "inplace",
        "label": "struct Lending.Lock",
        "members": [
          {
            "astId": 2549,
            "contract": "contracts/Lending.sol:Lending",
            "label": "lockingTime",
            "offset": 0,
            "slot": "0",
            "type": "t_uint256"
          },
          {
            "astId": 2551,
            "contract": "contracts/Lending.sol:Lending",
            "label": "duration",
            "offset": 0,
            "slot": "1",
            "type": "t_uint256"
          },
          {
            "astId": 2553,
            "contract": "contracts/Lending.sol:Lending",
            "label": "amount",
            "offset": 0,
            "slot": "2",
            "type": "t_uint256"
          }
        ],
        "numberOfBytes": "96"
      },
      "t_uint256": {
        "encoding": "inplace",
        "label": "uint256",
        "numberOfBytes": "32"
      }
    }
  }
}