{
  "address": "0xA219C645bdD41aC79Bd1AEc4dC91A563ADe648E8",
  "abi": [
    {
      "inputs": [],
      "stateMutability": "nonpayable",
      "type": "constructor"
    },
    {
      "stateMutability": "payable",
      "type": "fallback"
    },
    {
      "inputs": [
        {
          "internalType": "address",
          "name": "member",
          "type": "address"
        }
      ],
      "name": "AddMember",
      "outputs": [],
      "stateMutability": "nonpayable",
      "type": "function"
    },
    {
      "inputs": [
        {
          "internalType": "uint256",
          "name": "lendId",
          "type": "uint256"
        }
      ],
      "name": "Borrow",
      "outputs": [],
      "stateMutability": "nonpayable",
      "type": "function"
    },
    {
      "inputs": [
        {
          "internalType": "address",
          "name": "nftContractAddress",
          "type": "address"
        },
        {
          "internalType": "uint256",
          "name": "nftId",
          "type": "uint256"
        },
        {
          "internalType": "uint256",
          "name": "duration",
          "type": "uint256"
        },
        {
          "internalType": "uint256",
          "name": "apr",
          "type": "uint256"
        },
        {
          "internalType": "uint256",
          "name": "amount",
          "type": "uint256"
        }
      ],
      "name": "BorrowRequest",
      "outputs": [],
      "stateMutability": "nonpayable",
      "type": "function"
    },
    {
      "inputs": [],
      "name": "GetBalance",
      "outputs": [
        {
          "internalType": "uint256",
          "name": "",
          "type": "uint256"
        }
      ],
      "stateMutability": "view",
      "type": "function"
    },
    {
      "inputs": [
        {
          "internalType": "uint256",
          "name": "lendId",
          "type": "uint256"
        }
      ],
      "name": "GetLend",
      "outputs": [
        {
          "components": [
            {
              "internalType": "uint256",
              "name": "lendId",
              "type": "uint256"
            },
            {
              "internalType": "address",
              "name": "owner",
              "type": "address"
            },
            {
              "internalType": "address",
              "name": "contractAddress",
              "type": "address"
            },
            {
              "internalType": "uint256",
              "name": "nftId",
              "type": "uint256"
            },
            {
              "internalType": "uint256",
              "name": "duration",
              "type": "uint256"
            },
            {
              "internalType": "uint256",
              "name": "deadline",
              "type": "uint256"
            },
            {
              "internalType": "uint256",
              "name": "requestTime",
              "type": "uint256"
            },
            {
              "internalType": "uint256",
              "name": "APR",
              "type": "uint256"
            },
            {
              "internalType": "uint256",
              "name": "amount",
              "type": "uint256"
            },
            {
              "internalType": "uint256",
              "name": "yesVote",
              "type": "uint256"
            },
            {
              "internalType": "uint256",
              "name": "noVote",
              "type": "uint256"
            },
            {
              "internalType": "bool",
              "name": "isBorrowed",
              "type": "bool"
            }
          ],
          "internalType": "struct Lending.Lend",
          "name": "",
          "type": "tuple"
        }
      ],
      "stateMutability": "view",
      "type": "function"
    },
    {
      "inputs": [],
      "name": "GetLendCount",
      "outputs": [
        {
          "internalType": "uint256",
          "name": "",
          "type": "uint256"
        }
      ],
      "stateMutability": "view",
      "type": "function"
    },
    {
      "inputs": [
        {
          "internalType": "uint256",
          "name": "lockId",
          "type": "uint256"
        }
      ],
      "name": "GetLock",
      "outputs": [
        {
          "components": [
            {
              "internalType": "uint256",
              "name": "lockId",
              "type": "uint256"
            },
            {
              "internalType": "address",
              "name": "owner",
              "type": "address"
            },
            {
              "internalType": "uint256",
              "name": "deadline",
              "type": "uint256"
            },
            {
              "internalType": "uint256",
              "name": "duration",
              "type": "uint256"
            },
            {
              "internalType": "uint256",
              "name": "amount",
              "type": "uint256"
            }
          ],
          "internalType": "struct Lending.Lock",
          "name": "",
          "type": "tuple"
        }
      ],
      "stateMutability": "view",
      "type": "function"
    },
    {
      "inputs": [
        {
          "internalType": "address",
          "name": "member",
          "type": "address"
        }
      ],
      "name": "GetMember",
      "outputs": [
        {
          "internalType": "bool",
          "name": "",
          "type": "bool"
        }
      ],
      "stateMutability": "view",
      "type": "function"
    },
    {
      "inputs": [
        {
          "internalType": "uint256",
          "name": "lendId",
          "type": "uint256"
        }
      ],
      "name": "IsVoteOver",
      "outputs": [
        {
          "internalType": "bool",
          "name": "",
          "type": "bool"
        }
      ],
      "stateMutability": "view",
      "type": "function"
    },
    {
      "inputs": [
        {
          "internalType": "uint256",
          "name": "duration",
          "type": "uint256"
        }
      ],
      "name": "LockEth",
      "outputs": [],
      "stateMutability": "payable",
      "type": "function"
    },
    {
      "inputs": [
        {
          "internalType": "address",
          "name": "member",
          "type": "address"
        }
      ],
      "name": "RemoveMember",
      "outputs": [],
      "stateMutability": "nonpayable",
      "type": "function"
    },
    {
      "inputs": [
        {
          "internalType": "uint256",
          "name": "lendId",
          "type": "uint256"
        },
        {
          "internalType": "bool",
          "name": "vote",
          "type": "bool"
        }
      ],
      "name": "Vote",
      "outputs": [],
      "stateMutability": "nonpayable",
      "type": "function"
    },
    {
      "inputs": [
        {
          "internalType": "uint256",
          "name": "lockId",
          "type": "uint256"
        }
      ],
      "name": "WithdrawEth",
      "outputs": [],
      "stateMutability": "nonpayable",
      "type": "function"
    },
    {
      "inputs": [
        {
          "internalType": "uint256",
          "name": "lendId",
          "type": "uint256"
        }
      ],
      "name": "WithdrawNft",
      "outputs": [],
      "stateMutability": "payable",
      "type": "function"
    },
    {
      "inputs": [
        {
          "internalType": "address",
          "name": "",
          "type": "address"
        }
      ],
      "name": "daoMembers",
      "outputs": [
        {
          "internalType": "bool",
          "name": "",
          "type": "bool"
        }
      ],
      "stateMutability": "view",
      "type": "function"
    },
    {
      "inputs": [
        {
          "internalType": "address",
          "name": "",
          "type": "address"
        },
        {
          "internalType": "uint256",
          "name": "",
          "type": "uint256"
        }
      ],
      "name": "daoVotes",
      "outputs": [
        {
          "internalType": "bool",
          "name": "",
          "type": "bool"
        }
      ],
      "stateMutability": "view",
      "type": "function"
    },
    {
      "inputs": [
        {
          "internalType": "uint256",
          "name": "",
          "type": "uint256"
        }
      ],
      "name": "durationToApr",
      "outputs": [
        {
          "internalType": "uint256",
          "name": "",
          "type": "uint256"
        }
      ],
      "stateMutability": "view",
      "type": "function"
    },
    {
      "inputs": [],
      "name": "lendCount",
      "outputs": [
        {
          "internalType": "uint256",
          "name": "",
          "type": "uint256"
        }
      ],
      "stateMutability": "view",
      "type": "function"
    },
    {
      "inputs": [
        {
          "internalType": "uint256",
          "name": "",
          "type": "uint256"
        }
      ],
      "name": "lends",
      "outputs": [
        {
          "internalType": "uint256",
          "name": "lendId",
          "type": "uint256"
        },
        {
          "internalType": "address",
          "name": "owner",
          "type": "address"
        },
        {
          "internalType": "address",
          "name": "contractAddress",
          "type": "address"
        },
        {
          "internalType": "uint256",
          "name": "nftId",
          "type": "uint256"
        },
        {
          "internalType": "uint256",
          "name": "duration",
          "type": "uint256"
        },
        {
          "internalType": "uint256",
          "name": "deadline",
          "type": "uint256"
        },
        {
          "internalType": "uint256",
          "name": "requestTime",
          "type": "uint256"
        },
        {
          "internalType": "uint256",
          "name": "APR",
          "type": "uint256"
        },
        {
          "internalType": "uint256",
          "name": "amount",
          "type": "uint256"
        },
        {
          "internalType": "uint256",
          "name": "yesVote",
          "type": "uint256"
        },
        {
          "internalType": "uint256",
          "name": "noVote",
          "type": "uint256"
        },
        {
          "internalType": "bool",
          "name": "isBorrowed",
          "type": "bool"
        }
      ],
      "stateMutability": "view",
      "type": "function"
    },
    {
      "inputs": [],
      "name": "lockCount",
      "outputs": [
        {
          "internalType": "uint256",
          "name": "",
          "type": "uint256"
        }
      ],
      "stateMutability": "view",
      "type": "function"
    },
    {
      "inputs": [
        {
          "internalType": "uint256",
          "name": "",
          "type": "uint256"
        }
      ],
      "name": "locks",
      "outputs": [
        {
          "internalType": "uint256",
          "name": "lockId",
          "type": "uint256"
        },
        {
          "internalType": "address",
          "name": "owner",
          "type": "address"
        },
        {
          "internalType": "uint256",
          "name": "deadline",
          "type": "uint256"
        },
        {
          "internalType": "uint256",
          "name": "duration",
          "type": "uint256"
        },
        {
          "internalType": "uint256",
          "name": "amount",
          "type": "uint256"
        }
      ],
      "stateMutability": "view",
      "type": "function"
    },
    {
      "stateMutability": "payable",
      "type": "receive"
    }
  ],
  "transactionHash": "0x1d57a1e5c8d4316a90be3dce934c3c55a5567f556dec82ef11f0f3509645a597",
  "args": [],
  "numDeployments": 1,
  "solcInputHash": "6c90a96030e00a4a8332142c0b176762",
  "bytecode": "0x60806040526000600155600060035534801561001a57600080fd5b506001600560003373ffffffffffffffffffffffffffffffffffffffff1673ffffffffffffffffffffffffffffffffffffffff16815260200190815260200160002060006101000a81548160ff021916908315150217905550600a600460006201518081526020019081526020016000208190555060146004600062093a80815260200190815260200160002081905550601e6004600062278d00815260200190815260200160002081905550612f50806100d66000396000f3fe60806040526004361061012e5760003560e01c80638bfa1f40116100ab578063b2a3fd051161006f578063b2a3fd051461040d578063b741496914610436578063b848ae6b14610473578063e002d3e71461049c578063f4dadc61146104d9578063f8f8a9121461051a57610135565b80638bfa1f4014610323578063959068ea1461034c5780639b10b6f5146103895780639bcbe972146103b45780639fa88052146103f157610135565b8063699e0f56116100f2578063699e0f56146102405780636bc77c541461026b5780636c6047c6146102b35780637693a3e9146102de5780637dbe82d71461030757610135565b806308d91256146101375780630b319e0f146101745780631a2323d91461019d5780631a44e081146101c65780632dd227cc1461020357610135565b3661013557005b005b34801561014357600080fd5b5061015e60048036038101906101599190612245565b610545565b60405161016b91906126ae565b60405180910390f35b34801561018057600080fd5b5061019b600480360381019061019691906121ca565b6106a6565b005b3480156101a957600080fd5b506101c460048036038101906101bf9190612130565b61087e565b005b3480156101d257600080fd5b506101ed60048036038101906101e89190612245565b610965565b6040516101fa91906128a9565b60405180910390f35b34801561020f57600080fd5b5061022a60048036038101906102259190612130565b610ab3565b60405161023791906126ae565b60405180910390f35b34801561024c57600080fd5b50610255610b09565b60405161026291906128e0565b60405180910390f35b34801561027757600080fd5b50610292600480360381019061028d9190612245565b610b0f565b6040516102aa9c9b9a999897969594939291906128fb565b60405180910390f35b3480156102bf57600080fd5b506102c8610bbc565b6040516102d591906128e0565b60405180910390f35b3480156102ea57600080fd5b5061030560048036038101906103009190612130565b610bc6565b005b610321600480360381019061031c9190612245565b610cad565b005b34801561032f57600080fd5b5061034a60048036038101906103459190612272565b610df6565b005b34801561035857600080fd5b50610373600480360381019061036e9190612130565b611368565b60405161038091906126ae565b60405180910390f35b34801561039557600080fd5b5061039e611388565b6040516103ab91906128e0565b60405180910390f35b3480156103c057600080fd5b506103db60048036038101906103d69190612245565b61138e565b6040516103e891906128e0565b60405180910390f35b61040b60048036038101906104069190612245565b6113a6565b005b34801561041957600080fd5b50610434600480360381019061042f9190612245565b61170c565b005b34801561044257600080fd5b5061045d60048036038101906104589190612245565b611968565b60405161046a91906128c5565b60405180910390f35b34801561047f57600080fd5b5061049a60048036038101906104959190612245565b611a13565b005b3480156104a857600080fd5b506104c360048036038101906104be919061218a565b611f7b565b6040516104d091906126ae565b60405180910390f35b3480156104e557600080fd5b5061050060048036038101906104fb9190612245565b611faa565b6040516105119594939291906129b5565b60405180910390f35b34801561052657600080fd5b5061052f612000565b60405161053c91906128e0565b60405180910390f35b60008060008084815260200190815260200160002060405180610180016040529081600082015481526020016001820160009054906101000a900473ffffffffffffffffffffffffffffffffffffffff1673ffffffffffffffffffffffffffffffffffffffff1673ffffffffffffffffffffffffffffffffffffffff1681526020016002820160009054906101000a900473ffffffffffffffffffffffffffffffffffffffff1673ffffffffffffffffffffffffffffffffffffffff1673ffffffffffffffffffffffffffffffffffffffff16815260200160038201548152602001600482015481526020016005820154815260200160068201548152602001600782015481526020016008820154815260200160098201548152602001600a8201548152602001600b820160009054906101000a900460ff1615151515815250509050620151808160c001514261069d9190612afa565b11915050919050565b600060405180610180016040528060015481526020013373ffffffffffffffffffffffffffffffffffffffff1681526020018773ffffffffffffffffffffffffffffffffffffffff168152602001868152602001858152602001854261070c9190612a19565b815260200142815260200184815260200183815260200160008152602001600081526020016000151581525090508060008060015481526020019081526020016000206000820151816000015560208201518160010160006101000a81548173ffffffffffffffffffffffffffffffffffffffff021916908373ffffffffffffffffffffffffffffffffffffffff16021790555060408201518160020160006101000a81548173ffffffffffffffffffffffffffffffffffffffff021916908373ffffffffffffffffffffffffffffffffffffffff160217905550606082015181600301556080820151816004015560a0820151816005015560c0820151816006015560e082015181600701556101008201518160080155610120820151816009015561014082015181600a015561016082015181600b0160006101000a81548160ff0219169083151502179055509050506001600081548092919061087190612b76565b9190505550505050505050565b600560003373ffffffffffffffffffffffffffffffffffffffff1673ffffffffffffffffffffffffffffffffffffffff16815260200190815260200160002060009054906101000a900460ff1661090a576040517f08c379a0000000000000000000000000000000000000000000000000000000008152600401610901906126e9565b60405180910390fd5b6001600560008373ffffffffffffffffffffffffffffffffffffffff1673ffffffffffffffffffffffffffffffffffffffff16815260200190815260200160002060006101000a81548160ff02191690831515021790555050565b61096d612008565b60008083815260200190815260200160002060405180610180016040529081600082015481526020016001820160009054906101000a900473ffffffffffffffffffffffffffffffffffffffff1673ffffffffffffffffffffffffffffffffffffffff1673ffffffffffffffffffffffffffffffffffffffff1681526020016002820160009054906101000a900473ffffffffffffffffffffffffffffffffffffffff1673ffffffffffffffffffffffffffffffffffffffff1673ffffffffffffffffffffffffffffffffffffffff16815260200160038201548152602001600482015481526020016005820154815260200160068201548152602001600782015481526020016008820154815260200160098201548152602001600a8201548152602001600b820160009054906101000a900460ff1615151515815250509050919050565b6000600560008373ffffffffffffffffffffffffffffffffffffffff1673ffffffffffffffffffffffffffffffffffffffff16815260200190815260200160002060009054906101000a900460ff169050919050565b60015481565b60006020528060005260406000206000915090508060000154908060010160009054906101000a900473ffffffffffffffffffffffffffffffffffffffff16908060020160009054906101000a900473ffffffffffffffffffffffffffffffffffffffff169080600301549080600401549080600501549080600601549080600701549080600801549080600901549080600a01549080600b0160009054906101000a900460ff1690508c565b6000600154905090565b600560003373ffffffffffffffffffffffffffffffffffffffff1673ffffffffffffffffffffffffffffffffffffffff16815260200190815260200160002060009054906101000a900460ff16610c52576040517f08c379a0000000000000000000000000000000000000000000000000000000008152600401610c49906126e9565b60405180910390fd5b6000600560008373ffffffffffffffffffffffffffffffffffffffff1673ffffffffffffffffffffffffffffffffffffffff16815260200190815260200160002060006101000a81548160ff02191690831515021790555050565b600060046000838152602001908152602001600020541415610d04576040517f08c379a0000000000000000000000000000000000000000000000000000000008152600401610cfb90612729565b60405180910390fd5b60006040518060a0016040528060035481526020013373ffffffffffffffffffffffffffffffffffffffff1681526020018342610d419190612a19565b8152602001838152602001348152509050806002600060035481526020019081526020016000206000820151816000015560208201518160010160006101000a81548173ffffffffffffffffffffffffffffffffffffffff021916908373ffffffffffffffffffffffffffffffffffffffff16021790555060408201518160020155606082015181600301556080820151816004015590505060036000815480929190610ded90612b76565b91905055505050565b600080600084815260200190815260200160002060405180610180016040529081600082015481526020016001820160009054906101000a900473ffffffffffffffffffffffffffffffffffffffff1673ffffffffffffffffffffffffffffffffffffffff1673ffffffffffffffffffffffffffffffffffffffff1681526020016002820160009054906101000a900473ffffffffffffffffffffffffffffffffffffffff1673ffffffffffffffffffffffffffffffffffffffff1673ffffffffffffffffffffffffffffffffffffffff16815260200160038201548152602001600482015481526020016005820154815260200160068201548152602001600782015481526020016008820154815260200160098201548152602001600a8201548152602001600b820160009054906101000a900460ff1615151515815250509050600073ffffffffffffffffffffffffffffffffffffffff16816020015173ffffffffffffffffffffffffffffffffffffffff161415610fad576040517f08c379a0000000000000000000000000000000000000000000000000000000008152600401610fa490612869565b60405180910390fd5b3373ffffffffffffffffffffffffffffffffffffffff16816020015173ffffffffffffffffffffffffffffffffffffffff161415611020576040517f08c379a000000000000000000000000000000000000000000000000000000000815260040161101790612789565b60405180910390fd5b620151808160c00151426110349190612afa565b10611074576040517f08c379a000000000000000000000000000000000000000000000000000000000815260040161106b90612769565b60405180910390fd5b600560003373ffffffffffffffffffffffffffffffffffffffff1673ffffffffffffffffffffffffffffffffffffffff16815260200190815260200160002060009054906101000a900460ff16611100576040517f08c379a00000000000000000000000000000000000000000000000000000000081526004016110f7906126e9565b60405180910390fd5b600660003373ffffffffffffffffffffffffffffffffffffffff1673ffffffffffffffffffffffffffffffffffffffff168152602001908152602001600020600084815260200190815260200160002060009054906101000a900460ff161561119e576040517f08c379a000000000000000000000000000000000000000000000000000000000815260040161119590612749565b60405180910390fd5b81156111c057806101200180518091906111b790612b76565b815250506111d8565b806101400180518091906111d390612b76565b815250505b6001600660003373ffffffffffffffffffffffffffffffffffffffff1673ffffffffffffffffffffffffffffffffffffffff168152602001908152602001600020600085815260200190815260200160002060006101000a81548160ff021916908315150217905550806000808581526020019081526020016000206000820151816000015560208201518160010160006101000a81548173ffffffffffffffffffffffffffffffffffffffff021916908373ffffffffffffffffffffffffffffffffffffffff16021790555060408201518160020160006101000a81548173ffffffffffffffffffffffffffffffffffffffff021916908373ffffffffffffffffffffffffffffffffffffffff160217905550606082015181600301556080820151816004015560a0820151816005015560c0820151816006015560e082015181600701556101008201518160080155610120820151816009015561014082015181600a015561016082015181600b0160006101000a81548160ff021916908315150217905550905050505050565b60056020528060005260406000206000915054906101000a900460ff1681565b60035481565b60046020528060005260406000206000915090505481565b600080600083815260200190815260200160002060405180610180016040529081600082015481526020016001820160009054906101000a900473ffffffffffffffffffffffffffffffffffffffff1673ffffffffffffffffffffffffffffffffffffffff1673ffffffffffffffffffffffffffffffffffffffff1681526020016002820160009054906101000a900473ffffffffffffffffffffffffffffffffffffffff1673ffffffffffffffffffffffffffffffffffffffff1673ffffffffffffffffffffffffffffffffffffffff16815260200160038201548152602001600482015481526020016005820154815260200160068201548152602001600782015481526020016008820154815260200160098201548152602001600a8201548152602001600b820160009054906101000a900460ff1615151515815250509050600073ffffffffffffffffffffffffffffffffffffffff16816020015173ffffffffffffffffffffffffffffffffffffffff16141561155d576040517f08c379a000000000000000000000000000000000000000000000000000000000815260040161155490612809565b60405180910390fd5b428160a00151116115a3576040517f08c379a000000000000000000000000000000000000000000000000000000000815260040161159a90612709565b60405180910390fd5b3373ffffffffffffffffffffffffffffffffffffffff16816020015173ffffffffffffffffffffffffffffffffffffffff1614611615576040517f08c379a000000000000000000000000000000000000000000000000000000000815260040161160c906127e9565b60405180910390fd5b60648160e0015182610100015161162c9190612aa0565b6116369190612a6f565b8161010001516116469190612a19565b3411611687576040517f08c379a000000000000000000000000000000000000000000000000000000000815260040161167e906127a9565b60405180910390fd5b6000816040015190508073ffffffffffffffffffffffffffffffffffffffff166323b872dd30846020015185606001516040518463ffffffff1660e01b81526004016116d593929190612677565b600060405180830381600087803b1580156116ef57600080fd5b505af1158015611703573d6000803e3d6000fd5b50505050505050565b6000600260008381526020019081526020016000206040518060a0016040529081600082015481526020016001820160009054906101000a900473ffffffffffffffffffffffffffffffffffffffff1673ffffffffffffffffffffffffffffffffffffffff1673ffffffffffffffffffffffffffffffffffffffff16815260200160028201548152602001600382015481526020016004820154815250509050600073ffffffffffffffffffffffffffffffffffffffff16816020015173ffffffffffffffffffffffffffffffffffffffff161415611820576040517f08c379a000000000000000000000000000000000000000000000000000000000815260040161181790612889565b60405180910390fd5b42816040015110611866576040517f08c379a000000000000000000000000000000000000000000000000000000000815260040161185d90612849565b60405180910390fd5b3373ffffffffffffffffffffffffffffffffffffffff16816020015173ffffffffffffffffffffffffffffffffffffffff16146118d8576040517f08c379a00000000000000000000000000000000000000000000000000000000081526004016118cf906127e9565b60405180910390fd5b806020015173ffffffffffffffffffffffffffffffffffffffff166108fc8260800151606460046000866060015181526020019081526020016000205485608001516119249190612aa0565b61192e9190612a6f565b6119389190612a19565b9081150290604051600060405180830381858888f19350505050158015611963573d6000803e3d6000fd5b505050565b611970612097565b600260008381526020019081526020016000206040518060a0016040529081600082015481526020016001820160009054906101000a900473ffffffffffffffffffffffffffffffffffffffff1673ffffffffffffffffffffffffffffffffffffffff1673ffffffffffffffffffffffffffffffffffffffff16815260200160028201548152602001600382015481526020016004820154815250509050919050565b600080600083815260200190815260200160002060405180610180016040529081600082015481526020016001820160009054906101000a900473ffffffffffffffffffffffffffffffffffffffff1673ffffffffffffffffffffffffffffffffffffffff1673ffffffffffffffffffffffffffffffffffffffff1681526020016002820160009054906101000a900473ffffffffffffffffffffffffffffffffffffffff1673ffffffffffffffffffffffffffffffffffffffff1673ffffffffffffffffffffffffffffffffffffffff16815260200160038201548152602001600482015481526020016005820154815260200160068201548152602001600782015481526020016008820154815260200160098201548152602001600a8201548152602001600b820160009054906101000a900460ff1615151515815250509050600073ffffffffffffffffffffffffffffffffffffffff16816020015173ffffffffffffffffffffffffffffffffffffffff161415611bca576040517f08c379a0000000000000000000000000000000000000000000000000000000008152600401611bc190612809565b60405180910390fd5b3373ffffffffffffffffffffffffffffffffffffffff16816020015173ffffffffffffffffffffffffffffffffffffffff1614611c3c576040517f08c379a0000000000000000000000000000000000000000000000000000000008152600401611c33906127e9565b60405180910390fd5b620151808160c0015142611c509190612afa565b11611c90576040517f08c379a0000000000000000000000000000000000000000000000000000000008152600401611c87906127c9565b60405180910390fd5b80610140015181610120015111611cdc576040517f08c379a0000000000000000000000000000000000000000000000000000000008152600401611cd390612829565b60405180910390fd5b3073ffffffffffffffffffffffffffffffffffffffff16816040015173ffffffffffffffffffffffffffffffffffffffff16636352211e83606001516040518263ffffffff1660e01b8152600401611d3491906128e0565b60206040518083038186803b158015611d4c57600080fd5b505afa158015611d60573d6000803e3d6000fd5b505050506040513d601f19601f82011682018060405250810190611d84919061215d565b73ffffffffffffffffffffffffffffffffffffffff1614611dda576040517f08c379a0000000000000000000000000000000000000000000000000000000008152600401611dd1906126c9565b60405180910390fd5b806020015173ffffffffffffffffffffffffffffffffffffffff166108fc8261010001519081150290604051600060405180830381858888f19350505050158015611e29573d6000803e3d6000fd5b50806080015142611e3a9190612a19565b8160a0018181525050600181610160019015159081151581525050806000808481526020019081526020016000206000820151816000015560208201518160010160006101000a81548173ffffffffffffffffffffffffffffffffffffffff021916908373ffffffffffffffffffffffffffffffffffffffff16021790555060408201518160020160006101000a81548173ffffffffffffffffffffffffffffffffffffffff021916908373ffffffffffffffffffffffffffffffffffffffff160217905550606082015181600301556080820151816004015560a0820151816005015560c0820151816006015560e082015181600701556101008201518160080155610120820151816009015561014082015181600a015561016082015181600b0160006101000a81548160ff0219169083151502179055509050505050565b60066020528160005260406000206020528060005260406000206000915091509054906101000a900460ff1681565b60026020528060005260406000206000915090508060000154908060010160009054906101000a900473ffffffffffffffffffffffffffffffffffffffff16908060020154908060030154908060040154905085565b600047905090565b60405180610180016040528060008152602001600073ffffffffffffffffffffffffffffffffffffffff168152602001600073ffffffffffffffffffffffffffffffffffffffff16815260200160008152602001600081526020016000815260200160008152602001600081526020016000815260200160008152602001600081526020016000151581525090565b6040518060a0016040528060008152602001600073ffffffffffffffffffffffffffffffffffffffff1681526020016000815260200160008152602001600081525090565b6000813590506120eb81612ed5565b92915050565b60008151905061210081612ed5565b92915050565b60008135905061211581612eec565b92915050565b60008135905061212a81612f03565b92915050565b60006020828403121561214657612145612c1d565b5b6000612154848285016120dc565b91505092915050565b60006020828403121561217357612172612c1d565b5b6000612181848285016120f1565b91505092915050565b600080604083850312156121a1576121a0612c1d565b5b60006121af858286016120dc565b92505060206121c08582860161211b565b9150509250929050565b600080600080600060a086880312156121e6576121e5612c1d565b5b60006121f4888289016120dc565b95505060206122058882890161211b565b94505060406122168882890161211b565b93505060606122278882890161211b565b92505060806122388882890161211b565b9150509295509295909350565b60006020828403121561225b5761225a612c1d565b5b60006122698482850161211b565b91505092915050565b6000806040838503121561228957612288612c1d565b5b60006122978582860161211b565b92505060206122a885828601612106565b9150509250929050565b6122bb81612b2e565b82525050565b6122ca81612b2e565b82525050565b6122d981612b40565b82525050565b6122e881612b40565b82525050565b60006122fb602383612a08565b915061230682612c22565b604082019050919050565b600061231e601783612a08565b915061232982612c71565b602082019050919050565b6000612341601583612a08565b915061234c82612c9a565b602082019050919050565b6000612364601683612a08565b915061236f82612cc3565b602082019050919050565b6000612387601283612a08565b915061239282612cec565b602082019050919050565b60006123aa600d83612a08565b91506123b582612d15565b602082019050919050565b60006123cd602583612a08565b91506123d882612d3e565b604082019050919050565b60006123f0601483612a08565b91506123fb82612d8d565b602082019050919050565b6000612413601183612a08565b915061241e82612db6565b602082019050919050565b6000612436601283612a08565b915061244182612ddf565b602082019050919050565b6000612459601383612a08565b915061246482612e08565b602082019050919050565b600061247c601383612a08565b915061248782612e31565b602082019050919050565b600061249f601983612a08565b91506124aa82612e5a565b602082019050919050565b60006124c2601e83612a08565b91506124cd82612e83565b602082019050919050565b60006124e5601383612a08565b91506124f082612eac565b602082019050919050565b610180820160008201516125126000850182612659565b50602082015161252560208501826122b2565b50604082015161253860408501826122b2565b50606082015161254b6060850182612659565b50608082015161255e6080850182612659565b5060a082015161257160a0850182612659565b5060c082015161258460c0850182612659565b5060e082015161259760e0850182612659565b506101008201516125ac610100850182612659565b506101208201516125c1610120850182612659565b506101408201516125d6610140850182612659565b506101608201516125eb6101608501826122d0565b50505050565b60a0820160008201516126076000850182612659565b50602082015161261a60208501826122b2565b50604082015161262d6040850182612659565b5060608201516126406060850182612659565b5060808201516126536080850182612659565b50505050565b61266281612b6c565b82525050565b61267181612b6c565b82525050565b600060608201905061268c60008301866122c1565b61269960208301856122c1565b6126a66040830184612668565b949350505050565b60006020820190506126c360008301846122df565b92915050565b600060208201905081810360008301526126e2816122ee565b9050919050565b6000602082019050818103600083015261270281612311565b9050919050565b6000602082019050818103600083015261272281612334565b9050919050565b6000602082019050818103600083015261274281612357565b9050919050565b600060208201905081810360008301526127628161237a565b9050919050565b600060208201905081810360008301526127828161239d565b9050919050565b600060208201905081810360008301526127a2816123c0565b9050919050565b600060208201905081810360008301526127c2816123e3565b9050919050565b600060208201905081810360008301526127e281612406565b9050919050565b6000602082019050818103600083015261280281612429565b9050919050565b600060208201905081810360008301526128228161244c565b9050919050565b600060208201905081810360008301526128428161246f565b9050919050565b6000602082019050818103600083015261286281612492565b9050919050565b60006020820190508181036000830152612882816124b5565b9050919050565b600060208201905081810360008301526128a2816124d8565b9050919050565b6000610180820190506128bf60008301846124fb565b92915050565b600060a0820190506128da60008301846125f1565b92915050565b60006020820190506128f56000830184612668565b92915050565b600061018082019050612911600083018f612668565b61291e602083018e6122c1565b61292b604083018d6122c1565b612938606083018c612668565b612945608083018b612668565b61295260a083018a612668565b61295f60c0830189612668565b61296c60e0830188612668565b61297a610100830187612668565b612988610120830186612668565b612996610140830185612668565b6129a46101608301846122df565b9d9c50505050505050505050505050565b600060a0820190506129ca6000830188612668565b6129d760208301876122c1565b6129e46040830186612668565b6129f16060830185612668565b6129fe6080830184612668565b9695505050505050565b600082825260208201905092915050565b6000612a2482612b6c565b9150612a2f83612b6c565b9250827fffffffffffffffffffffffffffffffffffffffffffffffffffffffffffffffff03821115612a6457612a63612bbf565b5b828201905092915050565b6000612a7a82612b6c565b9150612a8583612b6c565b925082612a9557612a94612bee565b5b828204905092915050565b6000612aab82612b6c565b9150612ab683612b6c565b9250817fffffffffffffffffffffffffffffffffffffffffffffffffffffffffffffffff0483118215151615612aef57612aee612bbf565b5b828202905092915050565b6000612b0582612b6c565b9150612b1083612b6c565b925082821015612b2357612b22612bbf565b5b828203905092915050565b6000612b3982612b4c565b9050919050565b60008115159050919050565b600073ffffffffffffffffffffffffffffffffffffffff82169050919050565b6000819050919050565b6000612b8182612b6c565b91507fffffffffffffffffffffffffffffffffffffffffffffffffffffffffffffffff821415612bb457612bb3612bbf565b5b600182019050919050565b7f4e487b7100000000000000000000000000000000000000000000000000000000600052601160045260246000fd5b7f4e487b7100000000000000000000000000000000000000000000000000000000600052601260045260246000fd5b600080fd5b7f596f75206d7573742073656e64204e465420746f207468697320636f6e74726160008201527f63742e0000000000000000000000000000000000000000000000000000000000602082015250565b7f596f7520617265206e6f742064616f206d656d6265722e000000000000000000600082015250565b7f4c656e642074696d6520697320657870697265642e0000000000000000000000600082015250565b7f4475726174696f6e206973206e6f742076616c69642e00000000000000000000600082015250565b7f596f7520616c726561647920766f7465642e0000000000000000000000000000600082015250565b7f566f7465206973206f7665722e00000000000000000000000000000000000000600082015250565b7f596f752063616e6e6f7420766f746520666f7220796f7572206f776e2072657160008201527f756573742e000000000000000000000000000000000000000000000000000000602082015250565b7f596f752073686f756c6420706179206d6f72652e000000000000000000000000600082015250565b7f566f7465206973206e6f74206f7665722e000000000000000000000000000000600082015250565b7f596f7520617265206e6f74206f776e65722e0000000000000000000000000000600082015250565b7f4c656e6420646f6573206e6f7420657869737400000000000000000000000000600082015250565b7f566f7465206973206e6f74207061737365642e00000000000000000000000000600082015250565b7f4c6f636b2074696d65206973206e6f7420657870697265642e00000000000000600082015250565b7f426f72726f77207265717565737420646f6573206e6f742065786973742e0000600082015250565b7f4c6f636b20646f6573206e6f7420657869737400000000000000000000000000600082015250565b612ede81612b2e565b8114612ee957600080fd5b50565b612ef581612b40565b8114612f0057600080fd5b50565b612f0c81612b6c565b8114612f1757600080fd5b5056fea26469706673582212201f44a165be52df2e58d27c05574c1598b41aee63a4234a02d283b5f66af8e73a64736f6c63430008070033",
  "devdoc": {
    "kind": "dev",
    "methods": {},
    "version": 1
  },
  "userdoc": {
    "kind": "user",
    "methods": {},
    "version": 1
  },
  "storageLayout": {
    "storage": [
      {
        "astId": 2577,
        "contract": "contracts/Lending.sol:Lending",
        "label": "lends",
        "offset": 0,
        "slot": "0",
        "type": "t_mapping(t_uint256,t_struct(Lend)2561_storage)"
      },
      {
        "astId": 2580,
        "contract": "contracts/Lending.sol:Lending",
        "label": "lendCount",
        "offset": 0,
        "slot": "1",
        "type": "t_uint256"
      },
      {
        "astId": 2585,
        "contract": "contracts/Lending.sol:Lending",
        "label": "locks",
        "offset": 0,
        "slot": "2",
        "type": "t_mapping(t_uint256,t_struct(Lock)2572_storage)"
      },
      {
        "astId": 2588,
        "contract": "contracts/Lending.sol:Lending",
        "label": "lockCount",
        "offset": 0,
        "slot": "3",
        "type": "t_uint256"
      },
      {
        "astId": 2592,
        "contract": "contracts/Lending.sol:Lending",
        "label": "durationToApr",
        "offset": 0,
        "slot": "4",
        "type": "t_mapping(t_uint256,t_uint256)"
      },
      {
        "astId": 2596,
        "contract": "contracts/Lending.sol:Lending",
        "label": "daoMembers",
        "offset": 0,
        "slot": "5",
        "type": "t_mapping(t_address,t_bool)"
      },
      {
        "astId": 2602,
        "contract": "contracts/Lending.sol:Lending",
        "label": "daoVotes",
        "offset": 0,
        "slot": "6",
        "type": "t_mapping(t_address,t_mapping(t_uint256,t_bool))"
      }
    ],
    "types": {
      "t_address": {
        "encoding": "inplace",
        "label": "address",
        "numberOfBytes": "20"
      },
      "t_bool": {
        "encoding": "inplace",
        "label": "bool",
        "numberOfBytes": "1"
      },
      "t_mapping(t_address,t_bool)": {
        "encoding": "mapping",
        "key": "t_address",
        "label": "mapping(address => bool)",
        "numberOfBytes": "32",
        "value": "t_bool"
      },
      "t_mapping(t_address,t_mapping(t_uint256,t_bool))": {
        "encoding": "mapping",
        "key": "t_address",
        "label": "mapping(address => mapping(uint256 => bool))",
        "numberOfBytes": "32",
        "value": "t_mapping(t_uint256,t_bool)"
      },
      "t_mapping(t_uint256,t_bool)": {
        "encoding": "mapping",
        "key": "t_uint256",
        "label": "mapping(uint256 => bool)",
        "numberOfBytes": "32",
        "value": "t_bool"
      },
      "t_mapping(t_uint256,t_struct(Lend)2561_storage)": {
        "encoding": "mapping",
        "key": "t_uint256",
        "label": "mapping(uint256 => struct Lending.Lend)",
        "numberOfBytes": "32",
        "value": "t_struct(Lend)2561_storage"
      },
      "t_mapping(t_uint256,t_struct(Lock)2572_storage)": {
        "encoding": "mapping",
        "key": "t_uint256",
        "label": "mapping(uint256 => struct Lending.Lock)",
        "numberOfBytes": "32",
        "value": "t_struct(Lock)2572_storage"
      },
      "t_mapping(t_uint256,t_uint256)": {
        "encoding": "mapping",
        "key": "t_uint256",
        "label": "mapping(uint256 => uint256)",
        "numberOfBytes": "32",
        "value": "t_uint256"
      },
      "t_struct(Lend)2561_storage": {
        "encoding": "inplace",
        "label": "struct Lending.Lend",
        "members": [
          {
            "astId": 2538,
            "contract": "contracts/Lending.sol:Lending",
            "label": "lendId",
            "offset": 0,
            "slot": "0",
            "type": "t_uint256"
          },
          {
            "astId": 2540,
            "contract": "contracts/Lending.sol:Lending",
            "label": "owner",
            "offset": 0,
            "slot": "1",
            "type": "t_address"
          },
          {
            "astId": 2542,
            "contract": "contracts/Lending.sol:Lending",
            "label": "contractAddress",
            "offset": 0,
            "slot": "2",
            "type": "t_address"
          },
          {
            "astId": 2544,
            "contract": "contracts/Lending.sol:Lending",
            "label": "nftId",
            "offset": 0,
            "slot": "3",
            "type": "t_uint256"
          },
          {
            "astId": 2546,
            "contract": "contracts/Lending.sol:Lending",
            "label": "duration",
            "offset": 0,
            "slot": "4",
            "type": "t_uint256"
          },
          {
            "astId": 2548,
            "contract": "contracts/Lending.sol:Lending",
            "label": "deadline",
            "offset": 0,
            "slot": "5",
            "type": "t_uint256"
          },
          {
            "astId": 2550,
            "contract": "contracts/Lending.sol:Lending",
            "label": "requestTime",
            "offset": 0,
            "slot": "6",
            "type": "t_uint256"
          },
          {
            "astId": 2552,
            "contract": "contracts/Lending.sol:Lending",
            "label": "APR",
            "offset": 0,
            "slot": "7",
            "type": "t_uint256"
          },
          {
            "astId": 2554,
            "contract": "contracts/Lending.sol:Lending",
            "label": "amount",
            "offset": 0,
            "slot": "8",
            "type": "t_uint256"
          },
          {
            "astId": 2556,
            "contract": "contracts/Lending.sol:Lending",
            "label": "yesVote",
            "offset": 0,
            "slot": "9",
            "type": "t_uint256"
          },
          {
            "astId": 2558,
            "contract": "contracts/Lending.sol:Lending",
            "label": "noVote",
            "offset": 0,
            "slot": "10",
            "type": "t_uint256"
          },
          {
            "astId": 2560,
            "contract": "contracts/Lending.sol:Lending",
            "label": "isBorrowed",
            "offset": 0,
            "slot": "11",
            "type": "t_bool"
          }
        ],
        "numberOfBytes": "384"
      },
      "t_struct(Lock)2572_storage": {
        "encoding": "inplace",
        "label": "struct Lending.Lock",
        "members": [
          {
            "astId": 2563,
            "contract": "contracts/Lending.sol:Lending",
            "label": "lockId",
            "offset": 0,
            "slot": "0",
            "type": "t_uint256"
          },
          {
            "astId": 2565,
            "contract": "contracts/Lending.sol:Lending",
            "label": "owner",
            "offset": 0,
            "slot": "1",
            "type": "t_address"
          },
          {
            "astId": 2567,
            "contract": "contracts/Lending.sol:Lending",
            "label": "deadline",
            "offset": 0,
            "slot": "2",
            "type": "t_uint256"
          },
          {
            "astId": 2569,
            "contract": "contracts/Lending.sol:Lending",
            "label": "duration",
            "offset": 0,
            "slot": "3",
            "type": "t_uint256"
          },
          {
            "astId": 2571,
            "contract": "contracts/Lending.sol:Lending",
            "label": "amount",
            "offset": 0,
            "slot": "4",
            "type": "t_uint256"
          }
        ],
        "numberOfBytes": "160"
      },
      "t_uint256": {
        "encoding": "inplace",
        "label": "uint256",
        "numberOfBytes": "32"
      }
    }
  }
}